:020000040800F2
:10000000D814002075890008290200082B02000876
:100010002F02000833020008370200080000000029
:100020000000000000000000000000003B0200088B
:100030003D020008000000003F02000841020008E5
:100040008F8900088F8900088F8900088F89000830
:100050008F8900088F8900088F8900088F89000820
:100060008F8900088F8900088F8900088F89000810
:100070008F8900088F8900088F8900088F89000800
:100080008F8900088F8900088F8900088F890008F0
:100090008F8900088F8900088F890008135F000886
:1000A0008F8900088F8900088F8900088F890008D0
:1000B0008F890008F54F0008C75200088F89000893
:1000C0008F8900088F8900088F8900088F890008B0
:1000D0008F8900082B4800088F8900088F89000845
:1000E000EB1900088F8900088F89000800F002F8DA
:1000F00000F03AF80AA090E8000C82448344AAF188
:100100000107DA4501D100F02FF8AFF2090EBAE885
:100110000F0013F0010F18BFFB1A43F0010318473B
:10012000FCAE00001CAF0000103A24BF78C878C1B4
:10013000FAD8520724BF30C830C144BF04680C60ED
:10014000704700000023002400250026103A28BF35
:1001500078C1FBD8520728BF30C148BF0B60704739
:100160001FB51FBD10B510BD08F084FC1146FFF788
:10017000F7FF00F00FF808F0A2FC03B4FFF7F2FF5E
:1001800003BC08F0A3FC000030BF72B662B680F377
:1001900008887047012006F016FA06F085FA04F088
:1001A00009FB04F031FE05F04DF905F069FE202150
:1001B000194808F021FC012017490870002080F33D
:1001C000108800BF154890F8400000F0100008B1FA
:1001D0000120487000BF04F0AAFB00F0BBF904F056
:1001E0004CFE00F026F901F086FB03F0DDF802F08A
:1001F00073FB05F0D8F802F047FF00F0BAF90020D1
:100200000549087006490870064908700249887057
:10021000C87003F0AFFADEE74C0000203405002080
:100220003100002032000020704700BFFEE700BF11
:10023000FEE700BFFEE700BFFEE77047704770476C
:10024000704700000CB50020019000906C480068D9
:1002500040F480306A49086000BF6948006800F4D3
:10026000003000900198401C0190009818B9019846
:10027000B0F5A06FF1D16248006800F4003010B111
:100280000120009001E0002000900098012843D157
:100290005C48006840F010005A4908600846006851
:1002A00020F0030008600846006840F00200086083
:1002B00053484068524948600846406848600846CC
:1002C000406840F4806048600846406820F47C1034
:1002D00048600846406840F4E810486008460068F6
:1002E00040F08070086000BF4548006800F0007072
:1002F0000028F9D04248406820F003004049486097
:100300000846406840F00200486000BF3C48406832
:1003100000F00C000828F9D10CBD10B5FFF792FFD2
:1003200010BD10B53648006840F00100344908603F
:10033000084640683449084031494860084600682A
:10034000324908402E4908600846006820F48020A1
:1003500008600846406820F4FE0048604FF41F0023
:100360008860FFF7DAFF4FF000602949086010BD90
:1003700010B5002100200022214B5B6803F00C0126
:1003800021B1042906D0082928D107E0214B224CAD
:10039000236027E01F4B204C236023E0184B5B6851
:1003A00003F47010164B5B6803F48032022303EBF6
:1003B000904022B9194B4343174C23600DE0104B7A
:1003C0005B6803F4003323B1144B4343124C2360A6
:1003D00003E0104B4343104C236003E00D4B0E4CE5
:1003E000236000BF00BF064B5B68C3F303130C4CD4
:1003F000E15C094B1B68CB40074C236010BD00003B
:1004000000100240002002400000FFF8FFFFF6FE4F
:1004100008ED00E000127A000000002000093D0015
:100420000400002010B500220821144808F01CF92F
:1004300010BD10B508221149104608F0EBF8FFF77F
:10044000F1FF10BD10B50446022C05D10122082190
:100450000A4808F009F901E0FFF7E4FF10BD10B504
:10046000044607484078022800D110BD03F0F6F991
:100470002046FFF7E7FF00BFF7E70000000C014050
:100480004C00002070B50446012000F05FF82046C3
:1004900008F023F80546002000F058F8284670BD03
:1004A00070B504460D46012000F050F8294620465C
:1004B00008F030F8002000F049F870BD2DE9F04157
:1004C00007460C461646002511E0680008B9E811F9
:1004D00008B1012000E00020054620782844C5B27C
:1004E00014F8011B38467F1CFFF7DAFF761E002E3A
:1004F000EBD129463846FFF7D3FFBDE8F0812DE95F
:10050000F04106460F469046002512E038467F1C13
:10051000FFF7B8FF0446680008B9E81108B10120E8
:1005200000E0002005462819C5B206F8014BA8F1E5
:100530000108B8F1000FE9D13846FFF7A3FFA84240
:1005400002D10120BDE8F0810020FBE780F3108894
:100550007047000010B54421F94808F04DFAF849F9
:100560008879283104F0CCFA10B9072003F090F90B
:1005700010BD10B5F349F2481C3005F011FF10BD55
:1005800070B505460E4600240AE056F8241055F8CA
:1005900024000AF0FBF801D0002070BD601CC4B23A
:1005A000032CF2DB0120F8E701B5AEB000202C905F
:1005B0002890219020901F901E901C9019901890C8
:1005C0004021E14808F018FADF49491CDC4802687C
:1005D0000A6042684A600089088115E39DF870103E
:1005E0002E98405C1B901B98412802DB1B985A28D0
:1005F00002DD01202FB000BD9DF87000401CC0B28C
:100600001C901AAA1CA92E9801F0DCFF08B9022040
:10061000F0E71A980AF00AF9C0B2199019980AF08E
:100620003DF90B901A990AF07EFAC8490C900AF02D
:100630007DF90D9009F04EFF0022C54BCDE90E016A
:1006400009F024F9CDE9100109F0A0FB80B218905F
:100650001B98472802D04D286FD1BEE119982B284E
:100660006CD024DC12286AD010DC032868D006DCA9
:1006700000286FD001286ED002286DD1ADE004288B
:1006800040D00A2832D01128F7D1F6E01C282ED00D
:1006900006DC132870D014286FD01528EDD138E16E
:1006A0001E2825D0262869D02828E6D13EE13B28FF
:1006B0006FD00ADCA0F131000A284DD2DFE800F04B
:1006C000EE4C4C4C23EDECEBEAE95B286FD006DCFA
:1006D0003D286DD050286CD05A28CED1EDE05C2852
:1006E00007D05D2870D05E28C7D104E100BF00BFED
:1006F00000BF189828B92C9808B118207AE7012073
:100700002C9000BF00BF00201D9019981E282ED0ED
:1007100006DC042809D00A280BD01C2859D110E087
:1007200035283BD05C2854D13CE001208649087034
:100730004FE00220844908704BE0C4E1F9E09DE0FD
:100740004CE0189810B10A280BD106E003207E492E
:10075000087008E03FE03FE025E104207A49087096
:1007600001E0142046E700BF0020189031E01898FF
:1007700028B10A280BD106E081E0C9E02FE005206E
:100780007149087006E006206F49087002E01420E5
:1007900030E7F9E000BF002018901AE007206A490E
:1007A000087016E0189828B10A280BD106E085E0F9
:1007B000F2E01BE008206449087006E00920624965
:1007C000087002E0142015E794E000BF00201890A4
:1007D00000BF00BFE9E000BF00BF00BF00BF2C9812
:1007E00008B1182006E702202C9000BF01201D90C0
:1007F0001998032817D005DC48B101280BD002282E
:1008000039D10CE0262812D0502834D12FE0002016
:100810004D4948702FE001204B4948702BE00220E1
:100820004949487027E003204749487023E0189859
:10083000142806D01E2808D028280AD0322810D123
:100840000BE00420404948700DE005203E49487007
:1008500009E006203C49487005E007203A49487005
:1008600001E01420C6E600BF0020189003E0082035
:100870003549487000BF00BF97E000BF00BF0220AD
:100880001D90199811280AD012280CD0132812D1C3
:100890000DE078E076E074E072E070E04AE000217C
:1008A0002948417107E001212748417103E00221F5
:1008B0002548417100BF00BF77E000BF189860B9BC
:1008C00003201D9019985A2803D100211E48017158
:1008D0000FE001211C4801710BE004201D901898C5
:1008E0000A2802D119985A2801D1142082E6002042
:1008F00018905AE000BF05201D9019985D2803D17B
:1009000001211148817002E000210F4881704CE004
:1009100000BF06201D901998142803D101210A4810
:10092000C17002E000210848C1703EE007201D9020
:100930003BE000BF08201D902C9858B1182059E6C4
:100940006C00002050000020B00000200000C842D1
:100950000000E03F03202C901998312803D100219A
:10096000FE48817108E018980A2803D10121FB484C
:10097000817101E014203DE60020189015E000BFD1
:1009800000BF00BF00BF00BF09201D901998363876
:10099000C1B2F248C17108E00A201D90189808B150
:1009A000142027E601E0142024E600BF1898002850
:1009B00001DD17201EE601211D9801FA00F01F99A4
:1009C000084008B1152015E601211D9801FA00F034
:1009D0001F99084380B21F9015E11898002801DD87
:1009E000172007E6199804282BD007DC78B10128D6
:1009F0000ED002280DD0032850D123E0052822D0A4
:100A0000082838D0092837D01E2847D102E000BF77
:100A100000BF00BF0B201D90199830B1012808D0ED
:100A2000022807D01E280AD105E00121CB48017217
:100A300005E004E000BF0221C848017200BF00BF0A
:100A40002EE000BF00BF0C201D901998032804D091
:100A5000042806D005280CD107E00121BF48817287
:100A600007E00221BD48817203E00021BB4881728A
:100A700000BF00BF14E000BF0D201D90199808288A
:100A800002D0092808D103E00221B448417203E0F2
:100A90000021B248417200BF00BF01E01420A9E567
:100AA00000BF01211D9801FA00F01F99084008B10C
:100AB00015209FE501211D9801FA00F01F990843B8
:100AC00080B21F909FE01B984638152872D2DFE84D
:100AD00000F00B7171111B252F7135713D71434968
:100AE0004F717171525C660000201D909B491A98ED
:100AF000C86061E001201D9098481A990161209812
:100B000040F00100209057E002201D9093481A9970
:100B10004161209840F0020020904DE003201D909C
:100B20008E481A998161209840F00400209043E09B
:100B300004201D908949199808773DE005201D90F3
:100B40001A9809F057FE8549086235E006201D9085
:100B500082481A9941622FE007201D907F481A9918
:100B6000816229E008201D907C481A99C16223E027
:100B700009201D9020E00A201D9078481A994163B1
:100B8000219840F00100219016E00B201D90734841
:100B90001A998163219840F0020021900CE00C200A
:100BA0001D906E481A99C163219840F0040021906D
:100BB00002E0FFE714201DE500BF01211D9801FAA6
:100BC00000F01E99084008B1192013E501211D9875
:100BD00001FA00F040F26131084058B11A9809F06A
:100BE00079FC00221346CDE9100109F027F901D262
:100BF0000420FFE401211D9801FA00F01E9908432A
:100C000080B21E9000BF00BF9DF870102E98405C0F
:100C100000287FF4E3AC219818B12C9808B9022081
:100C20002C901E9800F0200030B14C48006A4C49CE
:100C3000884201DD1B20DDE44848807801280FD17F
:100C40002C9802282ED145484078082802D14348E4
:100C5000407810B31E9800F00100F0B91620C9E4E6
:100C600040484078C8B91E9800F00100B0B13B4838
:100C7000C078012816D13948C0680D9009F02AFCC7
:100C80004FF06632384BCDE90E0109F013F9CDE98A
:100C9000100108F0C9FD3149C86003E0314800691E
:100CA0002E49C8601E9800F4807018B92D48C1689C
:100CB0002A48C16229480078012809D11E9800F00D
:100CC000400008B91C2095E41E9820F040001E90BA
:100CD0002248407910B101280ED106E000202B9067
:100CE00001202A90022029900DE002202B90002064
:100CF0002A900120299006E001202B9002202A90C2
:100D00000020299000BF00BF1448C078012832D1CC
:100D1000002017902CE00121179801FA00F021998A
:100D20000840C0B10D483430179950F821000D909B
:100D300009F0D0FB4FF066320B4BCDE90E0109F004
:100D4000B9F8CDE9100108F06FFD014603483430D1
:100D5000179A40F822101798401C07E0B0000020B6
:100D60007F9698006C00002066663940C0B21790EC
:100D700017980328CFDB2C98032809D1F7488079EE
:100D8000012805D1219880F0040008B1252031E424
:100D9000F34A283207CA25AB07C31F9800F4007036
:100DA000A0B1EE48C079062801DD1D2022E4EC4800
:100DB0008179EA48C079814208D0E848C07925A9FC
:100DC000119003F09DFE08B9072013E4E348007872
:100DD000022802D008287AD18BE0219808B91A207D
:100DE00008E41E9800F0500008B91C2002E4DB481B
:100DF000406A119009F01AFDC0B228902898062880
:100E000001DD1D2004E4D548007F14280BD0D34811
:100E1000007F022805D11E9800F0800018B1142030
:100E20006CE414206AE41E9820F050001E9028986C
:100E3000002804DD2898401EC0B2289002E0C74870
:100E4000C079289022A9289803F05AFE08B90720F3
:100E500054E40020179048E00121179801FA00F0AF
:100E60002199084090B3BD48007F142830D1BC4878
:100E70003430179950F821001090B9481C3050F8C0
:100E800021000F90109909F059FE1190B3483430A9
:100E9000179950F8210001461090119809F04EFE64
:100EA00022AA179942F821001798022819D1AC48B4
:100EB000006C22A91190179851F8200010901199F8
:100EC00009F03CFE22AA179942F8210009E065E0EA
:100ED000A2483430179950F8211022AA179842F8E6
:100EE00020101798401CC0B2179017980328B3DB46
:100EF000F9E0219808B91A2034E40020179049E05D
:100F00000121179801FA00F021990840A0B325A902
:100F1000179851F82000109091481C30179950F8FC
:100F200021000F90109909F009FE11908B48343080
:100F3000179950F8210001461090119809F0FEFD14
:100F4000014686483430179A40F822101798022834
:100F50001CD18348006C119080483430179950F8A8
:100F600021001090119909F0E9FD01467B483430C9
:100F7000179A40F8221009E0FFE7794834301799B2
:100F800050F821207548343040F821201798401C33
:100F9000C0B2179017980328B2DBA4E02C9803285E
:100FA0006FD02198F0B30020179067E001211798C7
:100FB00001FA00F02199084048B969481C30179996
:100FC00050F821206548343040F8212052E0634831
:100FD000007807284ED061480079B0BB60483430B3
:100FE000179950F8210025A91090179851F8200062
:100FF0000F90109909F09AFA1190584834301799C7
:1010000050F8210001461090119809F08FFA01461E
:1010100052483430179A40F822101798022829D1E4
:101020004F4800E02DE0006C11904C483430179987
:1010300050F821001090119909F078FA01464748BC
:101040003430179A40F8221014E0FFE744481C306F
:10105000179950F8210011904048343050F8210081
:101060001090119909F062FA01463C483430179A01
:1010700040F822101798401CC0B217901798032808
:1010800094DB36480078C01E07282AD2DFE800F03B
:10109000041C101D1F291E00219808B900202C9047
:1010A00022A9062003F02CFD08B907201EE418E051
:1010B000219808B900202C9022A9072003F020FDD8
:1010C00008B9072012E40CE000BF0AE009E0234859
:1010D000407828B121484078012801D01E2005E43D
:1010E00000BF00BF00BF00BF1C484078082807D1E0
:1010F000219800280ED02C980128FBD01F201EE438
:101100002C98022806D11548407820B9219800284B
:10111000F8D12C90F0E11148C0680F9009F0DAF98D
:1011200000221346CDE9100108F0C4FD01D11620BC
:1011300005E40A484078082809D2DFE800F00804EE
:10114000090AFEFDFCFB219808B900202C90D2E191
:1011500000BF219830B91A200DE40000B000002033
:101160006C00002001212B9801FA00F001222A993D
:101170008A4010432199084008B9202011E4FE4814
:101180002B9950F821001190FC4850F82100109044
:10119000119909F0D3FC1690F7482A9950F82100CC
:1011A0001190F64850F821001090119909F0C6FCF2
:1011B00015901E9800F08000F0B31E9820F080007B
:1011C0001E90EE49EC48FFF7DBF908B1212008E456
:1011D000EA483438C078012813D1E8483438806AA6
:1011E0000D9009F077F94FF06632E54BCDE90E012D
:1011F00008F060FECDE9100108F016FBDF49343934
:1012000088621599084609F091FB0B9009F062F984
:10121000CDE90E011699084609F088FB079009F000
:1012200059F9CDE90A01D5483438806A039009F0AC
:1012300051F9CDE9060100E09FE0D0483438806ADA
:10124000019009F047F90022CE4BCDE9020108F0E8
:1012500031FECDE90401DDE9062308F02BFECDE9DE
:101260000801DDE90A2309F04BF8CDE90C01DDE9BD
:101270000E2309F045F8CDE9100108F0D5FA1490D5
:101280000021149809F01EFB01D2222007E4DDE9B9
:10129000151001F03CFA0B9009F01CF9CDE90E0194
:1012A000149809F017F9CDE90A0108F097FA81F0CE
:1012B0000041CDE90C01DDE90E2308F0A3FBCDE9E7
:1012C000100108F0B1FA1490AC4834384078032883
:1012D00003D1149880F000401490A8483438806AF4
:1012E0000021119009F0EEFA0BD2149880F0004022
:1012F0001490A2483438806A80F000419F48343806
:101300008162DDE9141009F011FB0C90169909F0C7
:101310000AFC0D9009F0DEF800229B4BCDE90E018E
:1013200008F0C8FDCDE9100108F07EFA01469348A7
:10133000243803E0D3E0D1E0CFE0CDE02B9A40F8B1
:1013400022101499169809F0F1FA0C90159909F0E9
:10135000EDF80D9009F0BEF800228B4BCDE90E019F
:1013600008F0A8FDCDE9100108F05EFA01468348B7
:1013700024382A9A40F82210ADE001212B9801FA76
:1013800000F001222A998A4010432099084008B9A8
:10139000232010E41E9820F00E001E907748343869
:1013A000C078012829D10020179023E00121179847
:1013B00001FA00F020990840C0B17048243817990C
:1013C00050F821000D9009F085F84FF066326C4B13
:1013D000CDE90E0108F06EFDCDE9100108F024FA08
:1013E000014666482438179A40F822101798401C86
:1013F000C0B2179017980328D8DB604924392B987E
:1014000051F8200001461190169809F097FB1690AC
:101410005A4824382A9950F821000146119015980D
:1014200009F08CFB1590DDE9151001F070F91390AF
:10143000524824382A9950F8210011904F482438F6
:101440002B9950F821001090119901F060F94B4947
:10145000343988620846806A01460E90139809F074
:101460006DFB0F9009F036F821F00041CDE9100135
:1014700008F0DAF91290129809F02CF8434A444B1C
:10148000CDE9100108F014FE25D2129809F022F8D7
:1014900000223D4BCDE9100108F00AFE01D22120C7
:1014A00011E436483438806A0B9009F013F8394A51
:1014B000394BCDE90C0108F0FDFCCDE91001129883
:1014C00009F008F8CDE90E01DDE9102308F0F0FD80
:1014D00001D221205BE40EE000BF00BF00BF2198D5
:1014E00008B91A2053E425492348FFF749F808B101
:1014F00021204CE400BF00BF40F221311E988843F8
:101500001E902C9818B11E9820F4E0501E901E9842
:1015100008B124203BE419483438006A16491C39C4
:101520008861164834388078487014483438C06868
:10153000086112483438C06A11900846C06810909B
:10154000119909F023F914D00B481C38407A50B196
:101550000A483438C06A119007481C38407A109005
:10156000119903F0DAFC05483438C06A02491C3985
:10157000C8600248343811E088000020E4000020F0
:1015800066663940000010400000E03F7B14AE4723
:10159000E17A743FFCA9F1D24D62503F90F83000DF
:1015A000CC4908750846417ACB48807A81420CD0F4
:1015B000C848C0681190C848807A1090119903F00B
:1015C000ACFCC548807AC3494872C248017AC24817
:1015D000407A814208D0C048407A1190FEF73FFF20
:1015E000BD48407ABB490872BB480078012804D145
:1015F000B948406A119000F0BDFEB7484079B5493E
:101600000871B548C07888702C9803280DD1B2486D
:101610008079487108464079012803D1AE48C06BF3
:10162000086402E00020AB490864AA488179AA480E
:10163000C079814208D0A848C079A6498871084677
:1016400025A90EC928300EC0A3480079A149C87049
:10165000A1480078801E082843D2DFE800F0041378
:1016600027142D42333C22A9289803F091F9994878
:1016700081792898814204D1964822A90EC9283040
:101680000EC02EE000BF2C9828B10022934992484A
:10169000343000F055FC0022904922A800F050FCA4
:1016A0008C4822A90EC91C300EC01AE089491C3191
:1016B000062003F06DF914E086491C31072003F081
:1016C00067F90EE083498448D0E90D23C06BC1E976
:1016D0000D23C86305E07F48002141638163C16336
:1016E00000BF00BF7C4840787A49087008460078FF
:1016F000082876D02C98022873D10846007808284C
:101700000BD2DFE800F0040B18334E5E6F7F00222F
:1017100072497148343000F013FC83E06D48407822
:1017200011906C480069109001466B483430119A52
:1017300000F006FC76E00123DDE92A212998CDE9B5
:101740000403CDE902126348407862490969CDE992
:1017500000106148806A03465F4A103202F124019A
:1017600011905C481C3000F014FC5BE00023DDE9C4
:101770002A212998CDE90403CDE902125548407881
:1017800054490969CDE900105348806A0346524A1A
:10179000103202F1240111904E481C3000F0F9FB88
:1017A00040E0002000904B48407811904948006983
:1017B00000231090014648483430119A00F034FE5E
:1017C00030E0012000904348407811904148006982
:1017D00000231090014640483430119A00F024FE56
:1017E00020E028E0002000903A48407811903948E5
:1017F000006901231090014637483430119A00F0F7
:1018000013FE0FE0012000903248407811903148DB
:1018100000690123109001462F483430119A00F0DE
:1018200003FE00BF00BF2B492B48D0E90D23C06B3E
:10183000C1E9072348622848007A2649C87108464A
:10184000C079A8B302F00AF82248C079012818D15B
:1018500023484078022838D001201190119880F355
:10186000108800BF1F48007840F008001D4908702C
:1018700000201190119880F3108800BF01F0E4FD62
:1018800023E001201349087000200871C8704870D7
:1018900088714872087212484078022812D00846AF
:1018A000807925A9119003F02BF910B9072009E4DC
:1018B0000EE0084825A90EC928300EC003F0D2FA60
:1018C000FEF7B0FD072002F06AF800200149C87158
:1018D000002004E46C000020B0000020000080BF65
:1018E0004C0000203100002010B5002211462820B5
:1018F00006F07FFE10BD10B54FF40062FE490420D3
:1019000006F09DFE4FF48052FB49042006F097FE3E
:101910004FF40042F849042006F091FE0122D10262
:10192000F54806F0A1FE01221103F34806F09CFEE3
:101930000122D103F04806F097FEF04890F84000ED
:1019400000F00800D0B10C234FF400620B210020FE
:1019500006F022FE0C234FF480521946002006F0B8
:101960001BFE0C234FF400420F21002006F014FE52
:1019700000221146282006F02BFE01E0FFF7B4FFFD
:1019800010BD2DE9F04100264FF40061DA4806F061
:101990007AFE47004FF48051D74806F074FE47EABC
:1019A00080074FF40041D44806F06DFE47EAC000BE
:1019B00000F00E05D14890F8400000F0400008B952
:1019C00085F00E0575B100240AE0204603F03DFACB
:1019D000284018B10120A0403043C6B2601CC4B2F8
:1019E000032CF2DB3046BDE8F08110B54FF418400F
:1019F00004F0B7FFC2484078012813D0C1480078EE
:101A000080B9FFF7BEFF68B100F08DFD012000F046
:101A100089FABC48007840F00300BA4908700020F9
:101A200000F080FA10BD2DE9F04F91B00746032079
:101A300010904FF0000800200890B148007810B1D5
:101A400011B0BDE8F08F002446E0204603F0E9F92C
:101A50000FA908550CB1012C0BD1002003F0E1F9BE
:101A60008346012003F0DDF94BEA000B0FA800F8D4
:101A700004B00120A040384060B3A049243151F89F
:101A8000240008F027FD00229F4BCDE9000108F05B
:101A900011FACDE90401404608F01CFDCDE9020130
:101AA000DDE9042308F004FB03D2404608F012FDF0
:101AB0000BE09249243151F8240008F00BFD00227C
:101AC000914BCDE9040108F0F5F9CDE9060107F0E5
:101AD000ABFE8046601CC4B2032CB6DB01258748F0
:101AE000806C0B9000BF8649091D0CA804F058FCBF
:101AF000002600200990002446E00120A040384044
:101B000000283FD00998401CC0B209905CB97C48BD
:101B1000001D04F003FC82467948C0F804A0CAF115
:101B2000000181600FE0012C0AD17548001D04F00E
:101B3000FDFB82467248C0F804A0C0F808A002E08D
:101B400000216F48C1606D4890F841000121A1401B
:101B5000084050B12DB188F000400CA941F8240094
:101B60000DE00CA840F8248009E01DB10CA840F855
:101B7000248004E088F000400CA941F824000FA85C
:101B8000005D0643601CC4B2032CB6DB099808F064
:101B900041F9CDE9000107F021FECDE904010B98E0
:101BA00008F098FCCDE90201DDE9042308F082F990
:101BB000CDE9060107F038FE0B905148467701F059
:101BC00063FA00220CA80B9900F0EAFE03F078FCFF
:101BD00003F0BAF900BFFDB1FFF7D3FE0A9000246D
:101BE00016E00FA8005D304080B10120A0400A99A6
:101BF000084058B1022C03D19DF83E00864305E011
:101C00009DF83C009DF83D1008438643601CC4B21B
:101C1000032CE6DB3A48467703F052FC3B48007859
:101C200000F0340008B33948007800F0300050B9B3
:101C30001DB9FFF7A6FE384028B94DB133480078EA
:101C400000F0040020B100F06EFC01F0FDFBF7E6AF
:101C5000012000F067F92D48007820F004002B499E
:101C60000870002000F05EF903E006F01C00002878
:101C7000B1D100BF03F097FB00F02EFE1F49B1F871
:101C80004C0004F04EFD85F0010595B11B49086D2F
:101C900008F020FC00221E4BCDE9040108F00AF9EF
:101CA000CDE9060107F0C0FD80461448406C0B905A
:101CB00004E01248D0F85080806C0B901098411EC0
:101CC000C9B2109100283FF70EAF0024D2E00120E6
:101CD000A040384000287DD0084890F841000121FC
:101CE000A1400840E8B3054A116D243252F824009F
:101CF00008F01CFC07900DE00008014034050020AE
:101D00004C000020320000200000F8BF310000200D
:101D100000001440854850F82410079808F006FE8B
:101D20008346002108F0CEFE1CD2804A116D243279
:101D300052F8240008F0FAFB03907C4850F8241075
:101D4000039808F0F3FD834608F0C4FB0022784BAB
:101D5000CDE9040107F09AFDCDE9060107F0E6FFA1
:101D60001BE01CE0714A116D243252F8240008F087
:101D7000DDFB03906D4850F82410039808F0D6FD61
:101D8000834608F0A7FB0022694BCDE9040108F067
:101D9000B7FACDE9060107F0C9FF814642E0634882
:101DA000006D80F0004B614850F82410584608F050
:101DB000BDFD0021079008F085FE1AD25B48006D3A
:101DC00080F000400390594850F82410039808F020
:101DD000ADFD00E04CE0834608F07CFB0022544B54
:101DE000CDE9040107F052FDCDE9060107F09EFFA1
:101DF00017E04E48006D80F0004003904B4850F8CB
:101E00002410039808F092FD834608F063FB00223B
:101E1000474BCDE9040108F073FACDE9060107F05C
:101E200085FF81467CB9434804F078FA0890089809
:101E300048444049091F48600898A9EB00013D4803
:101E4000001F816014E0012C0FD13A4804F06EFAB3
:101E50000890089848443749091F48600898A0EB43
:101E600009013448001F816002E0324840F82490A4
:101E7000601CC4B2032CFFF62AAF01F005F900BFC5
:101E8000DEE570B50546002448E055F82400002141
:101E900008F018FE08D3254A243252F8241055F8C9
:101EA000240008F00FFD03D201202249091FC87049
:101EB0002048001FC07870B31E48001F40780828D3
:101EC00018D1012000F02EF81B48007840F00800DF
:101ED00019490870002000F025F800BF01F0B4FA9D
:101EE0001448001F007800B170BD1248001F4078F0
:101EF0000028F3D100F017FB012000F013F80F4881
:101F0000007840F005000D490870002000F00AF844
:101F100001F09AFAE8E7FFE7601CC4B2032CB4DBD7
:101F200000BFE1E780F3108870470000340500200F
:101F30000000E03F5000002031000020320000206F
:101F400070B504460D461646F74890F8400000F07C
:101F5000200010B12046FFF794FFF4484078022893
:101F600000D170BD00BF01F06FFAF048007800B1F9
:101F7000F7E700F00BFD10B101F0EEFB00E000E030
:101F8000F1E700BF32462946204600F009FD00BFB8
:101F9000E7E72DE9FF4F9DB0054688461446DDE989
:101FA0002D792C9E54F8261055F8260008F0BEFA1C
:101FB0001C9054F8271055F8270008F0B7FA1B902A
:101FC00054F8260080F000401A9054F8270080F062
:101FD0000040199058F826001C9908F0AFFD1890A1
:101FE00058F827001B9908F0A9FD179000200F90C2
:101FF0001799199808F09AFC069018991A9808F001
:1020000095FC0590069908F091FA079008F062FA9D
:10201000CDE90A01DDE9181008F088FC069017994F
:102020001A9808F083FC0590069908F087FD079040
:1020300008F050FACDE90801DDE90A2307F094F928
:10204000CDE90C0107F0F0FB0E902F98C0B10E986F
:1020500008F040FAB64AB74BCDE90C0108F028F871
:1020600026D80E9808F036FAB34AB44BCDE90A01E7
:1020700008F046F9CDE90C0107F0D6FB0E9017E009
:102080000E9808F027FAAA4AAD4BCDE90C0107F0EB
:10209000D5FE0DD80E9808F01DFAA74AA74BCDE93A
:1020A0000A0107F0F3FBCDE90C0107F0BDFB0E9030
:1020B0004FF08040209908F039FC01909A48C16B9C
:1020C000019808F03BFD02909748C16B029808F018
:1020D0002DFC039008F0FEF9CDE9040107F07EFB2A
:1020E000CDE90801209808F0F5F9CDE904010E9832
:1020F00008F0F0F90022934BCDE9000107F0DAFE79
:10210000CDE90201DDE9042307F0D4FE21F000410E
:10211000CDE90601DDE9082307F074FCCDE90A01E9
:1021200007F09EFACDE90C0107F030FE1FFA80FAA5
:10213000BAF1000F7DD02B9838B1504608F0AEFBB5
:102140000D902A9908F0F2FB2A90504608F0A6FB61
:1021500001460D900E9808F057FA1690504608F078
:102160009DFB0D9055F8291058F8290008F0E6FC61
:102170000C900D9908F048FA15901699084608F049
:10218000D5FB099008F0A6F900224FF08043CDE975
:102190000A0107F0C3FFCDE90C0107F045FB1490DD
:1021A000149808F097F90022674BCDE9060107F073
:1021B0006DFBCDE90A01169808F08CF9634A644B6F
:1021C000CDE9060107F076FECDE90801DDE90A2335
:1021D00007F070FECDE90C0107F026FB1390149870
:1021E00008F078F90022574BCDE90A0107F062FEAA
:1021F000CDE90C0107F018FB14904FF0010BADE096
:102200000F980C2824DA1499199808F08FFB0D9078
:1022100013991A9808F08AFB0C900D9908F086F92A
:1022200010901399199808F081FB0D9014991A9841
:1022300000E096E008F07AFB0C900D9908F07EFC27
:102240001A90109819900F98401CC0B20F904DE052
:10225000584608F023FB0890169908F067FB099090
:1022600008F038F9CDE90A0107F0ACF9CDE90C0125
:1022700007F0DAFA1190584608F010FB089016990A
:1022800008F054FB099008F025F9CDE90A0107F0A0
:1022900055FACDE90C0107F0C7FA129054F827005F
:1022A000129908F043FB0D9054F8260080F000408E
:1022B0000B90119908F03AFB0C900D9908F036F943
:1022C0001A9054F82700119908F030FB0D9054F83B
:1022D000260080F000400B90129908F027FB0C902C
:1022E0000D9908F02BFC199000200F901A991C985A
:1022F00008F01CF945F8260019991B9808F016F902
:1023000045F8270055F82900159908F00FF945F808
:1023100029002846DDE92A12FFF712FE034800785B
:10232000C0B121B0BDE8F08F340500204C00002082
:102330008DEDB5A0F7C6A0BE182D4454FB21194061
:10234000F7C6A03E0000E03F000010404BDA7D5C85
:102350005555C53F0BF101001FFA80FBD345FFF631
:102360004FAF4046DDE92A12FFF7EAFD00BF21B07A
:10237000BDE8F08F2DE9FC5F81468C48407802284B
:1023800001D1BDE8FC9F8A49484608F0CFFA824651
:1023900008F0A0F8074607F063F9054607F0F6FCD9
:1023A00084B201F05BFAC4EB042008F05FFA8149C3
:1023B0000190484608F0BAFA0090019908F0BEFB77
:1023C000834608F087F8074607F04AF9054607F004
:1023D000DDFC1FFA80FA504604F0A3F908E001F092
:1023E00033F87248007800B1CBE7FF2004F099F988
:1023F000201EA4F101018CB2F1DC00BFC1E710B5D1
:10240000FFF772FA0120FFF70EFB0220FFF70BFB2C
:1024100001F01AF86548007800B110BDFEF7A9F880
:10242000FFF769FA00BFF8E72DE9F04105460E46CF
:1024300017461C46DDF818805C484078022801D118
:10244000BDE8F08101F00AFA0020584908772046DB
:1024500000F0B6FF00F0CAFF68B1012000F0A3F859
:102460005548007840F0100053490870002000F0F3
:102470009AF800F0E9FF4D48007800B1E0E73A46ED
:1024800031462846FFF75CFD01204C49087000F0FA
:102490008AF84B48007840F0020049490870002053
:1024A00000F081F800BF00F0CFFF4048007800B195
:1024B000C6E73E4840780028F5D14048007801281A
:1024C00016D1B8F1000F06D0384803461B1D0ECBBD
:1024D00010300EC00FE0012000F065F8364800789B
:1024E00040F0100034490870002000F05CF802E071
:1024F00001202E49087700203049087000F0A4FF21
:102500002A48007800B19BE702F04DFF00F0E4F9A3
:1025100000F0BAFD2549091D284603F041FF01F0EE
:10252000BCFD00BF8CE710B52548007800F0100016
:10253000002837D1012000F036F82148007840F01B
:1025400010001F490870002000F02DF802F08AFCEE
:10255000FDF768FF1548407800F00C0018B91348E3
:10256000807801281ED11148407804280CD1012020
:1025700000F019F81048007840F020000E4908706B
:10258000002000F010F80BE0012000F00CF80A48E1
:10259000007840F0080008490870002000F003F8B7
:1025A00002F0F9FC10BD80F3108870474C00002049
:1025B0000000404000007A4432000020300000203B
:1025C000310000202DE9F04F87B0804689469246C1
:1025D00099F8000000EB08040020059000258346D0
:1025E000049014F8016B06902D2E04D10120069062
:1025F00014F8016B03E02B2E01D114F8016B0020BD
:10260000059000258346049025E0A6F13000C6B26F
:10261000092E16DC0BF1010000F0FF0BBBF1080FD7
:102620000ADC049808B1681E45B2059800EB8000EA
:1026300006EB400005900CE0049850B9681C45B2C8
:1026400007E0FE2E04D1049810B90120049000E0A8
:1026500002E014F8016BD8E700BFBBF1000F03D113
:10266000002007B0BDE8F08F059808F017F907467D
:102670000021384608F08AF839D00FE0384607F0D4
:1026800029FF314A314BCDE9000107F013FCCDE9B8
:10269000020107F0C9F80746A81C45B215F1020F60
:1026A000ECDD002D0EDA384607F014FF284A294BDE
:1026B000CDE9000107F0FEFBCDE9020107F0B4F817
:1026C000074614E0002D12DD00BF384607F002FF78
:1026D0000022214BCDE9000107F0ECFBCDE902011E
:1026E00007F0A2F80746681E40B2051EEDDC06980A
:1026F00020B187F00040CAF8000001E0CAF800707D
:10270000A4EB0800401E89F800000120A9E72DE98C
:10271000F84F044689464946484608F007F983467B
:102720002146204608F002F95946009007F0FEFEC7
:10273000824607F0CFFE074607F050F8054607F03F
:1027400073F8BDE8F88F00007B14AE47E17A843F50
:102750009A9999999999B93F00002440411CC8B2AF
:10276000122800D10020704700B91220411EC8B2C3
:1027700070472DE9F047FE480078FFF7F5FF054662
:1027800005EB450000EBC500FA4901EB8004FA486F
:102790000078854201D1BDE8F0874FF08040616A42
:1027A00008F0C4F88146A16A08F0C0F88046A16923
:1027B00008F088F901D2A06908E04FF08040616A12
:1027C00008F0B4F88046A16A08F0B0F860612846C5
:1027D000FFF7CAFF0546E8480078854206D1E7487A
:1027E0000078854235D102F058FE32E02DE02646D1
:1027F00005EB450000EBC500DE4901EB80042846EF
:10280000FFF7B2FF0546DD480078854201D102F0AE
:1028100044FED4E9050107F0B9FF16D04FF080401F
:10282000616A08F083F88146A16A08F07FF8804663
:10283000716907F07BFE07463846A16908F042F847
:1028400001D2676101E0A0696061CB4800788542F0
:10285000CDD1C948007800EB400101EBC000C5496B
:1028600001EB8006C4480078FFF778FF05462DE0AD
:10287000344605EB450000EBC500BE4901EB800680
:102880007169606908F01EF815D24FF08040616AE6
:1028900008F04CF88146A16A08F048F88046616962
:1028A00007F044FE07463846716908F00BF802D27B
:1028B0007761B1480570D6E9050107F067FF01D1DE
:1028C000AD4805702846FFF749FF0546A84800783F
:1028D0008542CDD100BF5EE710B51C21A84806F0A7
:1028E0008BF80020A5490870A14908700120A5496E
:1028F00008700020A049087010BD00B59C48007801
:102900009E49097888420FD09C480078FFF726FF3F
:1029100002469A48007898490978884201D1964839
:1029200002709648027000BF00BD9148007893493C
:102930000978884201D1002070479048007800EB68
:10294000400101EBC0008B4901EB8000F4E72DE969
:10295000F0418A480078FFF701FF04468448007878
:10296000844202D10020BDE8F08104EB440101EB78
:10297000C401804A02EB8101486907F0ABFD0746BC
:1029800006F02CFF054606F04FFFECE77B48007889
:102990007C490978884201D1012070470020FCE77A
:1029A00007B59AB07248007800EB400101EBC00017
:1029B000704901EB80000C9000210C9801610C988B
:1029C00081620C98017070490C9841626F480068F0
:1029D0000A901A98006809900A9907F0A7FF002149
:1029E0000B9008F06FF816D26848006806901A98A5
:1029F00000680590069907F099FF079007F06AFDB7
:102A00000022634BCDE9080106F040FFCDE90A0141
:102A100007F08CF915E05D48006806901A98006888
:102A20000590069907F082FF079007F053FD0022FA
:102A3000574BCDE9080107F063FCCDE90A0107F027
:102A400075F91690514840680A901A9840680990A4
:102A50000A9907F06BFF00210B9008F033F816D2AB
:102A60004A48406806901A9840680590069907F011
:102A70005DFF079007F02EFD0022454BCDE90801D0
:102A800006F004FFCDE90A0107F050F915E03F48D0
:102A9000406806901A9840680590069907F046FF2E
:102AA000079007F017FD0022394BCDE9080107F028
:102AB00027FCCDE90A0107F039F91790304916983B
:102AC0000968401A2E4A17995268891A08440B90CF
:102AD000002801DB0B9801E00B9840420C994860FC
:102AE000274916980968411A254A17985268801A8A
:102AF000081A0B90002801DB0B9901E00B9841426A
:102B00000C98816000201190F7E01198002873D094
:102B10001198012870D01D49119851F820000A9091
:102B200011991A9850F8210009900A9907F0FEFEB1
:102B300000210B9007F0C6FF2CD21449119851F8D0
:102B40002000069011991A9850F8210005900699D6
:102B500007F0ECFE079007F0BDFC00220C4BCDE91E
:102B6000080106F093FECDE90A0107F0DFF82BE03B
:102B700015000020F00000201700002014000020A5
:102B800008040020160000209976967E3405002067
:102B90000000E03FF849119851F820000690119983
:102BA0001A9850F821000590069907F0BFFE07908B
:102BB00007F090FC0022F14BCDE9080107F0A0FBE3
:102BC000CDE90A0107F0B2F816AA119942F82100DE
:102BD00016A9119851F82010E94A52F82000081A55
:102BE0000B90002801DB0B9901E00B9841420C98F7
:102BF000001D119A40F822100C980269001D1199CD
:102C000050F82100824202D90C98006904E00C9827
:102C1000001D119950F821000C9908611198B8B95C
:102C2000D74916980968401AD54A17995268891ADF
:102C300008440A9007F01AFECF490B90119851F8FA
:102C4000200001460A900B9807F0DEFC129030E05D
:102C50001198012817D1CA4916980968401AC84A1C
:102C600017995268891A401A0A9007F0FFFDC24965
:102C70000B90119851F8200001460A900B9807F02C
:102C8000C3FC129015E016A9119851F82010BC4A07
:102C900052F82000081A0A9007F0E8FDB6490B9098
:102CA000119851F8200001460A900B9807F0ACFCEF
:102CB000129013AADDE9111042F8210000211298A8
:102CC00007F000FE07D2119802F0B5F80C990978C8
:102CD00008430C9908701299084607F027FE0B90DC
:102CE0000C98806A01460A900B9807F01FFC0C991B
:102CF00088621198401CC0B2119011980328FFF609
:102D000004AF0C98806A079007F0E4FBCDE9080156
:102D100006F064FDCDE90A0106F086FD0C99886293
:102D20000C98006908B91DB000BD00211B9807F080
:102D3000C9FD02D293481B9009E01C9838B10C9849
:102D4000806A01460B901B9807F0F0FD1B901B98C2
:102D500007F0C0FB00228C4BCDE90A0107F06EF8AA
:102D600002D24FF07E501B900C98806A079007F0BB
:102D7000B1FB02460B46CDE908010020824906F06E
:102D800041FECDE90A0106F04FFD0F9000200E90A4
:102D900011907BE013A9119851F8200000210B90AD
:102DA00007F0F4FC6ED013A9119851F820000B9095
:102DB0000F9907F0BBFD13AA119942F8210013A93E
:102DC000119851F82000079007F084FB02460B464B
:102DD000CDE9080100206C4906F014FE21F0004105
:102DE000CDE90A0106F020FD109063480C301199DE
:102DF00050F821000A90109907F098FD0B901B994C
:102E000007F060FE01D21B9808E05B480C30119976
:102E100050F821000B90109907F088FD1B90564840
:102E20001830119950F821000A90109907F07EFD92
:102E30000B900C98406A01460A900B9807F042FEEE
:102E400002D20C98406A08E04B481830119950F8AB
:102E500021000B90109907F069FD0C99486213A9A5
:102E6000119851F820000A9045480C30119950F8FB
:102E7000210009900A9907F059FD0B900E9907F06F
:102E800052FE0E901198401CC0B211901198032868
:102E900080DB3E4800783E490978884205D1002110
:102EA0000C9841610C98C1619FE00E9807F012FBED
:102EB000384A354BDB1ECDE90A0107F0F9F803D299
:102EC00000210C98C16190E00E9807F003FB314A95
:102ED000314BCDE9080107F0EBF803D20E9807F06B
:102EE000F9FA01E02B482C49CDE90A0106F09CFCD7
:102EF0000E900E9807F0EEFA0022234BCDE9040164
:102F000007F00CF900221D4BCDE9060106F0D2FFB7
:102F1000CDE9080106F062FCCDE90A0106F084FC67
:102F20000D900D9807F0D6FA0022174BCDE902015B
:102F300007F0F4F8CDE906010F48806B01900C987A
:102F4000406A0090019907F0F1FC02900D9907F09A
:102F5000EDFC039007F0BEFACDE90401DDE906239C
:102F600006F050FD00221346CDE9080106F066FF89
:102F700014D20020014632E0340500200000E03F7A
:102F8000080400209976967E0000F03F150000208E
:102F900014000020E90B21E7FDFFEFBF0D9807F0BB
:102FA00099FA0022574BCDE9040107F0B7F8CDE9B3
:102FB00008015548806B03900C98406A0290039971
:102FC00007F0B4FC04900D9907F0B0FC059007F0F1
:102FD00081FACDE90601DDE9082306F013FDCDE90C
:102FE0000A0106F021FC0C99C8611B99084607F0FC
:102FF0009DFC0C990862454880690A900C98006A0B
:1030000009900A9907F05EFC02D20C98006A01E070
:103010003E4880690B900C98C0690A900B9907F0A4
:1030200051FC02D20C98C0690EE0384880690B90C0
:103030000C98006A0A900B9907F044FC02D20C9895
:10304000006A01E0314880690C9988612F4813A912
:103050000EC90C300EC00C98006A2C4988610846D5
:10306000DDE91631189AC0E90031826028480078FD
:103070002849087008460078FFF770FB244908705B
:10308000FFF777FB00BF4EE610B5002416E02CB921
:10309000214803F04BF91D4908600DE0012C05D1D2
:1030A0001D4803F03BF91949486005E01A4850F8FB
:1030B0002400164941F82400601CC4B2032CE6DB4E
:1030C00010BD1448007815490978884206DB11487C
:1030D000007812490978401AC0B270470F4800784A
:1030E0000C490978401AC0F11200C0B2F5E710B5DA
:1030F00002F0D3F90948007809490870FFF739FB55
:1031000010BD00000000F03F34050020080400203E
:1031100016000020150000205000002014000020A0
:103120001700002010B5044603E014F8010B01F06D
:1031300047FB20780028F8D110BD10B50446204682
:10314000FFF7F0FF10BDFEB505460E4617460024FA
:103150000BE095FBF6F006FB1050C0B20DF8040032
:1031600095FBF6F0C5B2601CC4B2BC42F1DB08E0CE
:10317000611E1DF801103031C8B201F021FB601E44
:10318000C4B2002CF4DCFEBD10B5044608220221B6
:103190002046FFF7D8FF10BD70B505460A2D01DAAD
:1031A000012404E0642D01DA022400E00324224615
:1031B0000A212846FFF7C7FF70BD3EB5044600252B
:1031C0001CB9302001F0FCFA3EBD0CE00A20B4FB33
:1031D000F0F100FB11422846691CCDB20DF8002029
:1031E0000A20B4FBF0F4002CF0D108E0691E1DF8B1
:1031F00001103031C8B201F0E3FA681EC5B2002DEB
:10320000F4DC00BFE0E710B50446002C06DA2D2000
:1032100001F0D6FA6042FFF7D0FF02E02046FFF748
:10322000CCFF10BD2DE9F04786B082460D462E46F4
:103230000024504607F0DEFA81460021504607F090
:1032400041FB04D22D2001F0BBFA8AF0004A2E4641
:1032500006E04F49504607F069FB8246B01EC6B2F1
:10326000022EF6DA26B14B49504607F05FFB824644
:10327000504607F02FF907460022474B06F006FBA1
:10328000CDE9000106F0D0FA82460024504607F04E
:10329000B1FA81462E2002A9485511E0AC4201D175
:1032A000601CC4B20A20B9FBF0F100FB1190303071
:1032B0002146621CD4B202AA50540A20B9FBF0F98C
:1032C000B9F1000FEAD105E030222046611CCCB2F2
:1032D00002A90A54AC42F7DBAC4207D1601CC4B26D
:1032E00030222046611CCCB202A90A5406E0611EBD
:1032F00002AA505C01F064FA601EC4B2002CF6DC35
:1033000006B0BDE8F0872DE9F0470446234890F861
:10331000400000F0010078B1204607F0DBF80746D6
:103320001F4A204B06F0C6FD054606F07DFA814691
:103330000421FFF777FF03E003212046FFF772FF28
:10334000BDE8F0872DE9F0470446144890F84000A6
:1033500000F0010078B1204607F0BCF80746104A9B
:10336000104B06F0A7FD054606F05EFA81460121E6
:10337000FFF758FF03E000212046FFF753FFBDE8A9
:10338000F08710B5044603212046FFF74BFF10BD20
:103390000000C842000020410000E03F340500204A
:1033A0006568E1575128A43F10B510222049042038
:1033B00005F045F9012210211D4805F055F910BD11
:1033C00000211C4A11701C4991F8401001F0800145
:1033D00021B91146097881F00101117028B1154910
:1033E000097881F00101134A1170704710B510215E
:1033F0000F4805F048F90F490978484010BD10B54D
:103400000E480078012811D1FFF7F0FF70B10020BD
:103410000A4908700A4803461B1D0ECB10300EC027
:103420000848007840F040000649087010BD0000D0
:103430000008014018000020340500203000002062
:103440004C0000203100002010B500BFFE48047879
:10345000002C47D00120FD49487004F0020018B14B
:10346000012000F073FA1AE004F0040018B1022001
:1034700000F06CFA13E004F0080018B1032000F02B
:1034800065FA0CE004F0100018B1042000F05EFAB8
:1034900005E004F0200010B1052000F057FA04F018
:1034A0000100A8B1012000F07AFA012000F0EAF949
:1034B000E748007820F01000E5490870002000F08F
:1034C000E1F900BFE248007800F010000028F9D0D0
:1034D000012000F0D7F9DC4800780020DA490870B4
:1034E00000F0D0F9DA480478002C7DD004F0100008
:1034F00018B10120D549087010BD04F0010068B171
:1035000001F01EF8012000F0BDF9D148007820F04C
:103510000100CF490870002000F0B4F904F0680001
:10352000002854D0C948407820B1C848407800F0FD
:103530007C00E8B3C5484078082804D101F0ADFF0D
:103540000120C2498870C148407810B90220BF49A3
:10355000887004F0400060B1BC484078082802D16F
:103560004020BA494870B948807840F00800B7490F
:10357000887004F0080038B1B448407800F02000AA
:1035800010B91020B149487004F0200080B1062025
:1035900000F005FAAD48807800F0020008B144F070
:1035A0000404AA48807840F00400A849887000E02C
:1035B00001E020204870012000F064F9A448007860
:1035C00020F06800A2490870002000F05BF904F0C8
:1035D0000200002850D004F06800D0BB9B4840781F
:1035E00058B19A48407800E071E000F0500080B394
:1035F0009648807800F0020058B39448807800F034
:103600000400B0B19348407A40B1924AD168507AF0
:1036100001F04CFC4FF47A6003F083F88D48007A97
:1036200038B18C49087AFCF70DFF4FF47A7003F03B
:1036300078F8FFF77AF968B18448807800F00800DC
:1036400040B908208149487001F03AFF01F07CFC44
:1036500003E005E000207D49487000207B49887028
:10366000012000F00FF97A48007820F00200784934
:103670000870002000F006F904F0040038B3734825
:10368000407800F0300090B17048C07878B96F4849
:10369000807800F0040018B101F0E4FBFCF7C2FEF2
:1036A0006A48807840F002006849887003E0002092
:1036B000664988704870012000F0E4F8644800789A
:1036C00020F0040062490870002000F0DBF85F4839
:1036D000407800F07C0008B101F0F2FE5B484078D1
:1036E00020280AD15948807800F0020028B102F061
:1036F0004CFC10B910205549487054488078002877
:103700007FF4A4AE00BFF7E670B50446FFF79CFE59
:103710004E48007800B170BD207818B9002000F044
:10372000B7F817E02078242806D1204602F04CFC98
:10373000054600F0ADF80DE044484078012803D17B
:10374000092000F0A5F805E02046FCF72DFF05460E
:1037500000F09EF800BFDEE710B5012000F092F8FF
:103760003B48007840F0020039490870002000F022
:1037700089F810BD70B50026002500F043F93348E4
:103780004078012803D1022000F009F911E002F08D
:10379000FCFB40B12E48007840F020002C49087016
:1037A000FFF752FE02E00020284948702A4802F044
:1037B000EEFB00BF39E00A2C01D00D2C08D100200F
:1037C000254948550846FFF79FFF002600252CE0B5
:1037D0002EB1292C29D1012E27D1002625E0202C1D
:1037E00023DD2F2C21D0282C01D101261DE03B2CDC
:1037F00001D1022619E04F2D05DB0B2000F048F81F
:103800000026002511E0612C0ADB7A2C08DCA4F1EB
:103810002000C2B22846691CCDB20F490A5404E008
:103820002846691CCDB20C490C5400F0EBFF04464D
:10383000FF28C0D1FFF790FFFFF706FE034800788E
:103840000028B7D070BD0000320000204C000020DE
:10385000310000206C0000202404002010B5FFF788
:103860007BFF00BFFFF7F0FD0848007800B110BDF6
:10387000FFF75BF80028F5D1044840780828F1D01C
:1038800000BFF4E780F31088704700004C00002070
:1038900010B504461CB9B1A0FFF74FFC55E0B1A02C
:1038A000FFF74BFC172C45D2DFE804F0440C101452
:1038B000181C2024282C30344444444444444444B8
:1038C0003C384000A9A0FFF738FC3AE0ADA0FFF774
:1038D00034FC36E0B0A0FFF730FC32E0B3A0FFF7D5
:1038E0002CFC2EE0B4A0FFF728FC2AE0B7A0FFF7DD
:1038F00024FC26E0B9A0FFF720FC22E0C0A0FFF7DF
:103900001CFC1EE0C1A0FFF718FC1AE0C2A0FFF7E4
:1039100014FC16E0C5A0FFF710FC12E0C7A0FFF7EB
:103920000CFC0EE0CBA0FFF708FC0AE0CEA0FFF7EE
:1039300004FC06E0D1A0FFF700FC2046FFF72CFCBA
:1039400000BF00BFD2A0FFF7F8FB10BD10B50446C2
:10395000D0A0FFF7F2FB062C18D2DFE804F0170323
:10396000070B0F13CDA0FFF7E8FB0FE0CEA0FFF78A
:10397000E4FB0BE0CFA0FFF7E0FB07E0D2A0FFF7EE
:10398000DCFB03E0D3A0FFF7D8FB00BF00BFC0A063
:10399000FFF7D3FB4FF4FA7002F0C3FE10BD10B571
:1039A0000446CFA0FFF7C9FB092C26D2DFE804F0BC
:1039B0002505090D1115191D2100CAA0FFF7BDFB32
:1039C0001BE0CDA0FFF7B9FB17E0D0A0FFF7B5FBD8
:1039D00013E0D3A0FFF7B1FB0FE0D3A0FFF7ADFBDF
:1039E0000BE0D4A0FFF7A9FB07E0D5A0FFF7A5FBEC
:1039F00003E0D5A0FFF7A1FB00BF00BFD7A0FFF7F2
:103A00009CFB10BD10B5D6A0FFF797FB10BD10B5FD
:103A1000DB48FFF792FB10BD2DE9F0416426D9A0E9
:103A2000FFF78BFBD84991F83000FFF7B5FBD7A023
:103A3000FFF783FBD44991F83300FFF7ADFBDAA021
:103A4000FFF77BFBD04991F83100FFF7A5FBDEA023
:103A5000FFF773FBCC4991F83100FFF795FBE1A02C
:103A6000FFF76BFBC84991F83200FFF795FBDFA029
:103A7000FFF763FBC44991F83200FFF785FBE1A033
:103A8000FFF75BFBC04991F84010C1F38000FFF7DE
:103A900083FBDEA0FFF751FBBB4991F84010C1F357
:103AA0008010FFF779FBE2A0FFF747FBB64991F8DA
:103AB0004010C809FFF770FBE5A0FFF73EFBB249D5
:103AC00091F83400FFF768FBE9A0FFF736FBAE4939
:103AD00091F83400FFF758FBEBA0FFF72EFBAA4943
:103AE000886BFFF74EFCEAA0FFF727FBA649C86BDF
:103AF000FFF747FCEEA0FFF720FBA34991F8401029
:103B000001F00100FFF748FBF0A0FFF716FB9E490C
:103B100091F84010C1F34010FFF73EFBF3A0FFF710
:103B20000CFB994991F84010C1F3C000FFF734FB3A
:103B3000F5A0FFF702FB944991F84010C1F3001083
:103B4000FFF72AFBF7A0FFF7F8FA8F4991F8410039
:103B5000FFF722FBFAA0FFF7F0FAFFE16F6B0D0A07
:103B6000000000006572726F723A2000457870653F
:103B70006374656420636F6D6D616E64206C657441
:103B800074657200426164206E756D6265722066B4
:103B90006F726D6174000000496E76616C6964201B
:103BA00073746174656D656E7400000056616C75A8
:103BB00065203C203000000053657474696E6720F6
:103BC00064697361626C65640000000056616C7525
:103BD00065203C20332075736563000045455052D5
:103BE0004F4D2072656164206661696C2E205573AB
:103BF000696E672064656661756C7473000000000F
:103C00004E6F742069646C6500000000416C617245
:103C10006D206C6F636B0000486F6D696E67206E7E
:103C20006F7420656E61626C656400004C696E653E
:103C3000206F766572666C6F770000004D6F64616F
:103C40006C2067726F75702076696F6C6174696F34
:103C50006E000000556E737570706F72746564202D
:103C6000636F6D6D616E6400556E646566696E6547
:103C7000642066656564207261746500496E7661D2
:103C80006C69642067636F64652049443A000000F2
:103C90000D0A0000414C41524D3A200048617264C7
:103CA000206C696D69740000536F6674206C696DD7
:103CB0006974000041626F727420647572696E6786
:103CC000206379636C65000050726F6265206661E5
:103CD000696C0000486F6D696E67206661696C00F1
:103CE0005B000000526573657420746F20636F6E13
:103CF00074696E7565000000272448277C272458C6
:103D00002720746F20756E6C6F636B004361757450
:103D1000696F6E3A20556E6C6F636B6564000000CE
:103D2000456E61626C65640044697361626C6564D0
:103D300000000000436865636B20446F6F720000F1
:103D400050676D20456E6400526573746F72696EC2
:103D5000672064656661756C747300005D0D0A0010
:103D60000D0A4772626C20302E396A205B272427A7
:103D700020666F722068656C705D0D0A000000009F
:103D8000D8AE000824303D0034050020202873748C
:103D900065702070756C73652C2075736563290DD3
:103DA0000A24313D000000002028737465702069EA
:103DB000646C652064656C61792C206D7365632982
:103DC0000D0A24323D0000002028737465702070B5
:103DD0006F727420696E76657274206D61736B3AD0
:103DE00000000000290D0A24333D000020286469EA
:103DF0007220706F727420696E76657274206D61C6
:103E0000736B3A00290D0A24343D00002028737496
:103E1000657020656E61626C6520696E766572748E
:103E20002C20626F6F6C290D0A24353D00000000C4
:103E300020286C696D69742070696E7320696E76D4
:103E40006572742C20626F6F6C290D0A24363D0058
:103E5000202870726F62652070696E20696E7665C9
:103E600072742C20626F6F6C290D0A2431303D0072
:103E70002028737461747573207265706F7274207A
:103E80006D61736B3A000000290D0A2431313D0049
:103E900020286A756E6374696F6E20646576696147
:103EA00074696F6E2C206D6D290D0A2431323D002E
:103EB000202861726320746F6C6572616E63652C7B
:103EC000206D6D290D0A2431333D000020287265D4
:103ED000706F727420696E636865732C20626F6FF7
:103EE0006C290D0A2432303D000000002028736F39
:103EF0006674206C696D6974732C20626F6F6C2915
:103F00000D0A2432313D0000202868617264206C63
:103F1000696D6974732C20626F6F6C290D0A2432ED
:103F2000323D00002028686F6D696E6720637963F9
:103F30006C652C20626F6F6C290D0A2432333D00B2
:103F40002028686F6D696E672064697220696E76DB
:103F5000657274206D61736B3A000000EA4991F854
:103F60004100FFF711F9E9A0FFF7E7F8E649486CCF
:103F7000FFF707FAE7A0FFF7E0F8E349886CFFF7DF
:103F800000FAECA0FFF7D9F8DF4991F84C00FFF7F1
:103F900003F9F0A0FFF7D1F8DB49086DFFF7F1F95D
:103FA000F4A0FFF7CAF800BF002572E0002469E022
:103FB000F7A0FFF7C2F83119C8B2FFF7EDF8AFF27A
:103FC000FC10FFF7BAF835B1012D0AD0022D0FD041
:103FD000032D22D117E0CC4951F82400FFF7D1F985
:103FE0001BE0C9490C3151F82400FFF7CAF914E06D
:103FF000C549183151F82400E64906F005FB07468B
:10400000FFF7BFF909E0C048243050F8240080F0E1
:1040100000473846FFF7B5F900BF00BFDEA0FFF745
:104020008CF824B1012C06D0022C0CD107E0DBA0C7
:10403000FFF783F807E0DAA0FFF77FF803E0D9A0E5
:10404000FFF77BF800BF00BF35B1012D08D0022D6E
:104050000AD0032D10D10BE0D3A0FFF76EF80BE0D0
:10406000D4A0FFF76AF807E0D7A0FFF766F803E0EF
:10407000DAA0FFF762F800BF00BFDCA0FFF75DF831
:10408000601CC4B2032C93DB06F10A00C6B2681CA4
:10409000C5B2042D8ADBBDE8F0813EB5D4A0FFF7A0
:1040A0004CF8002410E02146D34802F047F94DF8BF
:1040B00024005DF82400FFF726F9022C02DACFA0D5
:1040C000FFF73BF8601CC4B2032CECDBC9A0FFF780
:1040D00034F8C9491039087FFFF75EF8AFF2843031
:1040E000FFF72BF83EBD3EB5002538E0694628466F
:1040F00000F006FD18B90720FFF7CAFB3EBDC0A0BF
:10410000FFF71BF8062D02D0072D08D103E0BDA054
:10411000FFF713F809E0BCA0FFF70FF805E005F181
:104120003601C8B2FFF738F800BF00BFB1A0FFF7F3
:1041300004F800240FE05DF82400FFF7E4F8022CF7
:1041400003DAAEA0FEF7F9FF03E0AFF2F030FEF7BE
:10415000F4FF601CC4B2032CEDDB681CC5B2072D54
:10416000C4DDAAA0FEF7E9FF002410E0A94951F838
:104170002400FFF7C8F8022C03DAA0A0FEF7DDFF49
:1041800003E0AFF22840FEF7D8FF601CC4B2032C56
:10419000ECDBA1A0FEF7D1FF9E493439086CFFF794
:1041A000B2F8AFF24840FEF7C8FFFFF776FF00BF56
:1041B000A4E710B5AFF2D840FEF7BFFF95483438FA
:1041C000007809281AD2DFE800F005090D11191945
:1041D0001919150092A0FEF7B0FF1AE091A0FEF7A2
:1041E000ACFF16E090A0FEF7A8FF12E08FA0FEF74C
:1041F000A4FF0EE08EA0FEF7A0FF0AE08DA0FEF760
:104200009CFF844934390978891EC8B2FEF7C4FF7F
:1042100000BF00BF89A0FEF790FF7E49343989793D
:104220003631C8B2FEF7B8FF7A483438007920B189
:10423000012806D002280CD107E081A0FEF77DFFFF
:1042400007E081A0FEF779FF03E081A0FEF775FF8C
:1042500000BF00BF6F483438807818B97EA0FEF7E1
:104260006CFF02E07EA0FEF768FF6A483438C07831
:1042700018B97DA0FEF761FF02E07DA0FEF75DFFAB
:10428000644834384078012803D17BA0FEF755FFFD
:1042900002E07BA0FEF751FF5E483438C07920B1C0
:1042A000012806D002280CD107E077A0FEF745FFD1
:1042B00007E076A0FEF741FF03E075A0FEF73DFFA3
:1042C00000BF00BF53483438407A60B1012802D0A3
:1042D00002280CD103E06FA0FEF72FFF07E06EA0CD
:1042E000FEF72BFF03E06DA0FEF727FF00BF00BF26
:1042F00048483438007A10B1022803D1D2E068A0CF
:10430000FEF71BFFD2E0000034050020290D0A242F
:1043100032343D002028686F6D696E6720666565E0
:10432000642C206D6D2F6D696E290D0A2432353D88
:10433000000000002028686F6D696E672073656556
:104340006B2C206D6D2F6D696E290D0A2432363D60
:10435000000000002028686F6D696E672064656248
:104360006F756E63652C206D736563290D0A2432A9
:10437000373D00002028686F6D696E672070756C8E
:104380006C2D6F66662C206D6D290D0A00000000F3
:104390002400000000006145202800007800000093
:1043A000790000007A0000002C20737465702F6D76
:1043B0006D000000206D617820726174652C206DA5
:1043C0006D2F6D696E00000020616363656C2C20A9
:1043D0006D6D2F7365635E3200000000206D6178A3
:1043E0002074726176656C2C206D6D00290D0A00B9
:1043F0005B5052423A0000005C0000202C0000009C
:104400005B47000032380000333000005B47393230
:104410003A000000A00000205B544C4F3A0000001E
:1044200047300000473100004732000047330000AA
:10443000473830004733382E000000002047000086
:1044400020473137000000002047313800000000CD
:1044500020473139000000002047323100000000C1
:1044600020473230000000002047393000000000B3
:104470002047393100000000204739330000000098
:104480002047393400000000204D3000204D31001D
:10449000204D3200204D3300204D3400204D35009A
:1044A000204D39008AA0FEF748FE00BF00BF89A05A
:1044B000FEF743FE8849087DFEF76EFE87A0FEF7F3
:1044C0003CFE85490869FEF73DFF85A0FEF735FEF5
:1044D0008149C868FEF736FFAFF28070FEF72DFE07
:1044E00010BD70B505460C467EA0FEF726FE284698
:1044F000FEF752FEAFF23470FEF71FFE2046FEF7C5
:1045000011FEAFF67400FEF718FE70BD10B504463C
:1045100075A0FEF712FE2046FEF704FEAFF2C4704F
:10452000FEF70BFE10BD10B5044673A0FEF705FEA6
:104530002046FEF7F7FDAFF2DC70FEF7FEFD10BD82
:1045400030B587B06E4A121D07CA04AB07C36C486A
:104550004078082814D007DC68B101281CD0022854
:104560001ED0042824D113E010280DD020281BD001
:1045700040281DD103E063A0FEF7DFFD18E000BF77
:1045800062A0FEF7DAFD13E062A0FEF7D6FD0FE0B1
:1045900062A0FEF7D2FD0BE062A0FEF7CEFD07E0C1
:1045A00062A0FEF7CAFD03E062A0FEF7C6FD00BFF1
:1045B00000BF624890F8340000F0030018B104A96D
:1045C00001A801F0EDFE5D4890F8340000F0010014
:1045D00098B15BA0FEF7B1FD00240CE001A951F8F1
:1045E0002400FEF790FE022C03DAAFF2F010FEF783
:1045F000A4FD601CC4B2032CF0DB504890F83400DA
:1046000000F0020090B350A0FEF797FD00242BE0CD
:10461000314A343252F824100C3A52F8240005F092
:1046200085FF054601A850F82410284606F07BFABD
:1046300001A941F82400022C09D1274A116C01AAD2
:1046400052F8240006F07AFA01A941F8240001A9E1
:1046500051F82400FEF757FE022C03DAAFF2642073
:10466000FEF76BFD601CC4B2032CD1DB334890F81D
:10467000340000F0040038B135A0FEF75EFDFEF70F
:1046800020FD0546FEF788FD2C4890F8340000F028
:10469000080038B130A0FEF750FD00F067F805467D
:1046A000FEF77AFD254890F8340000F0100048B17C
:1046B0002BA0FEF742FDFDF764F905460322022117
:1046C000FEF741FD28A0FEF738FD07B030BD000021
:1046D000204D3800205400006C00002020460000CF
:1046E00020530000244E00005B302E396A2E4279A0
:1046F00020507A683A0000005B6563686F3A2000DA
:104700004C0000203C49646C650000003C52756E12
:10471000000000003C486F6C640000003C486F6D76
:10472000650000003C416C61726D00003C436865AF
:10473000636B00003C446F6F720000003405002082
:104740002C4D506F733A00002C57506F733A000095
:104750002C4275663A0000002C52583A00000000C6
:104760002C4C696D3A0000003E0D0A007448017837
:1047700074480078884204DB72480078401AC0B25E
:10478000704770480078081AC0F18000C0B2F7E79F
:104790006D4801786D480078884204DB6B480078EA
:1047A000401AC0B2704769480078081AC0F140004A
:1047B000C0B2F7E710B54FF4E13004F085F810BD52
:1047C00070B5054661480078401CC4B2402C00D149
:1047D000002405E05E48007800F0100000B170BDD4
:1047E000594800788442F5D05A48584909784554C8
:1047F00056480470012240F22771574803F023FC09
:1048000000BFECE74E4801784E480078884201D15D
:10481000FF207047514A505C4A1CD1B2802900D118
:104820000021474A117000BFF3E770B540F22551EF
:10483000494803F0D7FC00285AD0474803F068FCE9
:10484000C6B23F2E0AD004DC182E3BD0212E3CD11C
:104850001EE0402E29D07E2E37D10CE0012000F042
:104860006BF83B48007840F001003949087000209F
:1048700000F062F83BE0012000F05EF83448007878
:1048800040F0020032490870002000F055F82EE098
:10489000012000F051F82E48007840F008002C4923
:1048A0000870002000F048F821E0012000F044F8F2
:1048B0002748007840F0200025490870002000F0CB
:1048C0003BF814E0FDF72FFE11E01E480078401C75
:1048D000C5B2802D00D1002519480078854205D049
:1048E0001E481849097846541648057000BF00BF95
:1048F00040F22771184803F08BFCB8B112480478D5
:104900001448015D144803F0FFFB601CC4B2402C46
:1049100000D100240C4804700C480078844205D172
:10492000002240F227710C4803F08DFB70BD054852
:10493000007803490870704780F3108870470000C2
:104940001A000020190000201C0000201B0000207D
:1049500031000020F40400200038014074040020DD
:1049600070B504460D4604EB041000EB841000F50E
:104970004076502229463046FBF7A0FD70BD10B5A9
:1049800004465022214640F2AE30FBF797FD10BDA1
:1049900070B504460D4604EB840000EBC40000F53E
:1049A00000760C2229463046FBF788FD70BD10B515
:1049B00009210020FBF774FD5422FC490120FBF77C
:1049C0007DFD10BD3EB5044604F00100002844D032
:1049D0000A20F64981F83000192081F833000020C0
:1049E00081F8310081F83200032081F83400F0486A
:1049F0008863F048C863012081F84100EE484864AC
:104A0000EE488864FA20A1F84C004FF07E5008650B
:104A1000002081F84000084690F8400040F0100067
:104A200081F84000E648086048608860E548C86052
:104A30000146DE4801614161E348DC498861014685
:104A4000DA48C1610162E148D84948620146D74865
:104A50008162DF49C162FFF7AAFF04F0020070B172
:104A60000020009001900290002505E0694628464C
:104A7000FFF78EFF681CC5B2072DF7DD00BF04F0FD
:104A8000040048B100214FF44070FBF709FD0021FC
:104A900040F25130FBF704FD04F0080020B1002182
:104AA00040F2AE30FBF7FCFC3EBD70B505460C464F
:104AB00005EB051000EB851000F5407650223146DD
:104AC0002046FBF71CFD38B90020207021462846FF
:104AD000FFF746FF002070BD0120FCE710B504463B
:104AE000502240F2AE312046FBF709FD30B90020DC
:104AF00020702046FFF743FF002010BD0120FCE797
:104B000070B505460C4605EB850000EBC50000F5C9
:104B100000760C2231462046FBF7F1FC48B9002014
:104B200020606060A06021462846FFF731FF00202A
:104B300070BD0120FCE710B50020FBF7A3FC044684
:104B4000092C07D1542201219848FBF7D8FC18B949
:104B5000002010BD0020FCE70120FAE72DE9F04716
:104B600005460E464FF00009304605F0B3FC0746F7
:104B70000022134605F062F902D20420BDE8F08756
:104B8000642D43DBA5F16400C5B23BE0032D2BDAB5
:104B9000B9F1000F09D0B9F1010F0AD0B9F1020F34
:104BA0000CD0B9F1030F1DD115E0804840F8256005
:104BB00018E07E480C3040F8256013E08549304607
:104BC00005F0B4FE0746834905F0B0FE7749183179
:104BD00041F8250006E086F000417448243040F892
:104BE000251000BF00BF10E009F1010000F0FF092F
:104BF0000A2D02DBB9F1040F01D10320BEE7A5F1B4
:104C00000A00C5B2B9F1040FC0DBF9E0304605F087
:104C10000DFEC4B21C2D74D2DFE805F00E161A206A
:104C200026394CEFEFEF5F636669EFEFEFEFEFEFE1
:104C30007D98ADDEE2E5E8EC032C01DA06209DE785
:104C40005A4880F83040DAE0584880F83340D6E0DF
:104C5000564880F8314000F05BFBD0E0534880F8C4
:104C6000324000F055FBCAE044B1504890F8400093
:104C700040F004004D4981F8400007E04B4890F8AF
:104C8000400020F00400494981F84000B7E044B1F9
:104C9000464890F8400040F04000444981F8400008
:104CA00007E0424890F8400020F040003F4981F87A
:104CB0004000A4E044B13D4890F8400040F080003E
:104CC0003A4981F8400007E0384890F8400020F069
:104CD0008000364981F8400091E0344880F8344043
:104CE0008DE0324886638AE03048C66387E04CB185
:104CF0002E4890F8400040F001002C4981F8400017
:104D000008E07AE0294890F8400020F001002749A7
:104D100081F8400073E084B1244890F8400000F02E
:104D2000100008B90A2029E7204890F8400040F018
:104D300020001E4981F8400007E01C4890F8400020
:104D400020F02000194981F8400058E044B117488C
:104D500090F8400040F00800144981F8400007E056
:104D6000124890F8400020F00800104981F84000F7
:104D7000FCF7C1FD43E044B10C4890F8400040F01E
:104D800010000A4981F840000EE0084890F8400001
:104D900020F01000054981F84000084690F84000D6
:104DA00020F0200081F8400029E023E034050020B5
:104DB0000AD7233C6F12033B00803B4500401C4652
:104DC00000007A430060EA4600A00C47000082C25F
:104DD000000048C200007042214880F841400EE0C7
:104DE0001F4846640BE01E48866408E01C48A0F893
:104DF0004C4004E01A48066501E00320BEE600BF0F
:104E0000FFF7D5FD0020B9E610B5FFF794FE38B9DD
:104E10000720FEF73DFDFF20FFF7D4FDFEF7FCFD68
:104E200010BD014609B904207047012901D10820AD
:104E3000FAE71020F8E7014609B920207047012958
:104E400001D14020FAE78020F8E7014609B90220A5
:104E50007047012901D10420FAE70820F8E7000093
:104E60003405002010B540F6E441080703F057FC74
:104E70004FF0804003F062FC10BD1CB52F484FF08E
:104E8000804101231A46CDE900102D49042003F08A
:104E900002FC02222A49042003F0BCFB0422284918
:104EA000104603F0B7FBFFF7DDFF1CBD2DE9F04115
:104EB00004460D4614B9FFF7D5FF2CE0012C05D1AF
:104EC000002204211E4803F0CFFB04E0012204214C
:104ED0001B4803F0C9FB284605F0FCFA06460022F1
:104EE000134604F0ABFF02D8FFF7BCFF13E02846DF
:104EF00005F0F0FA06460022134604F09FFF01D2A7
:104F0000002508E04FF47A71C80603F008FC4FF062
:104F1000804003F013FCBDE8F08170B504460D46F7
:104F200008484078022800D170BDFEF797FC29465A
:104F30002046FFF7BBFF00BFF6E7000000FF7F47FA
:104F4000000801404C00002010B5FE4890F84000D9
:104F500000F0040028B10122D102FB4803F084FBD9
:104F600005E000224FF40061F74803F07DFBF748AD
:104F7000407800F00C0068B1F5480078F549C87336
:104F8000F54800788873EF4890F83000801E487329
:104F900003F056FC10BD10B503F058FC0020EF499B
:104FA00008700024E74890F83300FF2802D1EC484D
:104FB000007848B1E5484078042805D0E14991F8E7
:104FC000330001F0AEFB0124DE4890F8400000F011
:104FD000040008B184F001042CB10122D102DA48A6
:104FE00003F042FB05E000224FF40061D64803F0D5
:104FF0003BFB10BD10B50121DA4802F034FF002858
:105000007ED00121D74802F03FFFD448007800B19C
:1050100010BDD048C07BC0F340124FF48071CA4825
:1050200003F022FBCB48C07BC0F380124FF4007129
:10503000C54803F019FBC748C07BC2094FF4806123
:10504000C14803F011FBC348807BC0F380022021DC
:10505000BD4803F009FBBF48807BC0F3C00240217C
:10506000B94803F001FBBB48807BC0F300128021EC
:10507000B54803F0F9FAB748417B082003F005FC76
:1050800003F0F7FB0120B5490870002080F3108879
:1050900000BFB048406A002867D1B3480078B349E0
:1050A0000978884250D0B248B049097800EBC10075
:1050B000A84948620846406A80884110082003F0E9
:1050C000CBFBA448406A0088A24988830846807FB9
:1050D000496A8978884216D09E48406A80789D49FE
:1050E00088770846807F00EB8000A24901EB8000B2
:1050F000984908620846006A00694008886000E034
:10510000DFE0486008609348006A007890490978B9
:1051100048409049C8730846006A4068496A8979DE
:10512000C8408C4908610846006A8068496A8979E4
:10513000C840884948610846006AC068496A897958
:10514000C8408449886110E0FFF725FF012080F303
:10515000108800BF8848007840F004008649087035
:10516000002080F3108800BF52E7FEF748F90020C6
:1051700078498873084600680969084475490860D9
:1051800008460068096A096988421DD97148807B10
:1051900040F004006F49887308460068096A09698D
:1051A000401A6C4908600846006A007800F0200048
:1051B00028B166484068401E6449486004E063487E
:1051C0004068401C61494860624841684069084441
:1051D0006049486008464068096A096988421DD9E3
:1051E0005C48807B40F008005A4988730846406854
:1051F000096A0969401A574948600846006A0078F8
:1052000000F0400028B151488068401E4F49886036
:1052100004E04E488068401C4C4988604D488168D5
:10522000806908444B49886008468068096A0969B2
:1052300088421DD94748807B40F01000454988735B
:1052400008468068096A0969401A42498860084628
:10525000006A007800F0800028B13C48C068401E19
:105260003A49C86004E03948C068401C3749C86002
:1052700036484078042806D13648807B3349497F38
:105280000840344988733348808B401E31498883F5
:105290000846808B58B90020486234480078401C8A
:1052A000C0B232490870062801D100200870294890
:1052B000807B29490978484026498873002027497E
:1052C000087000BFA4E610B501212C4802F0CBFD08
:1052D000E8B10121294802F0D7FD1F480078C0F34A
:1052E00080022021184803F0BFF91B480078C0F362
:1052F000C0024021144803F0B7F917480078C0F302
:1053000000128021104803F0AFF903F0B8FA10BD85
:1053100010B50020104908700D49087000243FE0C6
:10532000084890F831000121A140084038B12046DA
:10533000FFF777FD084909780843074908700148D5
:105340001EE0000034050020000C01404C0000204D
:10535000240000201C06002023000020250000203F
:105360003200002000040040210000202000002026
:10537000EC050020880500203100002000080040D6
:1053800090F832100120A040014039B12046FFF7CB
:1053900052FDFE4909780843FC490870601CC4B2FC
:1053A000032CBDDB10BD10B5FFF7F5FD3021F8482B
:1053B00003F022FB2821F74803F01EFB0020F549EB
:1053C0004862F5490860F5490870F5490870012000
:1053D000F44908700020F4490870FFF799FFF3487A
:1053E0000078C0F380022021F14803F03DF9EF4836
:1053F0000078C0F3C0024021ED4803F035F9EB48D6
:105400000078C0F300128021E94803F02DF9DF484D
:105410000078C0F340124FF48071E54803F024F99E
:10542000DA480078C0F380124FF40071E04803F0CE
:105430001BF9D6480078C2094FF48061DC4803F0BC
:1054400013F910BD10B52022D949082003F0E2F865
:105450004022D749082003F0DDF88022D4490820F3
:1054600003F0D8F84FF48072D149082003F0D2F845
:105470004FF40072CE49082003F0CCF84FF480625C
:10548000CB49082003F0C6F84FF40062C849082051
:1054900003F0C0F803F05AF910BD10B5BE4800681B
:1054A00068B10120BA4948700A46D169D06905F04F
:1054B0003DFAB949096848610020B749086010BD44
:1054C00000B5A1B0BB48407800F0700068B1B048AA
:1054D000C0690D9004F0FEFF00221346CDE90E01D5
:1054E00004F0E8FB01D121B000BDFDE3AA4800684B
:1054F00000287DD1FDF719FAA74908600846006821
:1055000000B9F0E7A248407818B10020A0494870DF
:1055100083E09F480078401CC0B29D490870052870
:1055200001D1002008709A48007800EB8000A24961
:1055300001EB8000A149086097480068007809687D
:105540000870954800684068C0009C490968486038
:10555000914800688068C1009848006881608E4862
:105560000068C068C10095480068C1608A4800684A
:105570000069C000914909680861874800680069AE
:105580000F9005F08BF98249486083480068806A73
:105590000F90084640680E900F9905F035F87C4949
:1055A0008860084680680B9004F094FF02460B4622
:1055B000CDE90C010020824904F024FACDE90E0166
:1055C00004F032F97249C8600020086179484078D7
:1055D00000F0700088B10846406AC8610846406A19
:1055E0000F900846406A0E900F9905F09FF900E071
:1055F00077E16949096848610FE0674800684069D8
:105600000B9004F067FFCDE90C0104F0E7F8CDE959
:105610000E0104F009F95E49C86100205C49886107
:105620005D480068406A0B9004F054FF02460B4648
:10563000CDE90C010020634904F0E4F9CDE90E0145
:1056400004F0F2F820905B48407800F070000028E9
:105650004ED002204E4908754F4800684069014607
:105660000E90209805F062F90F904B480068806A10
:1056700001460E900F9805F056FA1F901F9804F0FF
:1056800029FF00221346CDE90E0104F0D7FB28D2F2
:1056900041480068406A014608904FF0804005F09C
:1056A00045F909903C480068806A014608900998CD
:1056B00005F03CF90A9038480068406901460990B5
:1056C0000A9805F030FA0B9004F004FFCDE90C01C4
:1056D00004F084F8CDE90E0104F0A6F82C494862E4
:1056E000FFE02B491F988861002129484162F8E0BA
:1056F00000202749087528480068806A8862FDF7FD
:1057000026F9234948620846406A0F900846406AD5
:105710000E900F9905F00AF91E901F480068406925
:1057200008901E9905F00AFA0990209905F0FEF8F4
:105730000A9019480068806A014609900A9804F0A6
:10574000F5FE0B9004F0C6FE00221E4BCDE90C01C5
:1057500004F0B0FBCDE90E0104F066F81D901D9831
:1057600004F0B8FE00221346CDE90E0104F0A0FCBF
:1057700075D209480068806A01460F901D9805F0AF
:10578000A1F86DD204480068006A1DE024000020E2
:10579000440600201C0600202800002020000020D5
:1057A00021000020220000202500002023000020EE
:1057B000000C01404C000020880500202C00002037
:1057C0000000F43F0000E03F0E901E9905F0B6F98E
:1057D0000F90209905F0AAF8FE49C8620846C06AF1
:1057E0000F901D9905F06EF83BD2FB480068006AE7
:1057F0000B9004F06FFECDE90C0103F0EFFFCDE953
:105800000E0104F011F8F3490862F3480068006AD9
:105810000F90F148006840690E900F9904F0B6FFB0
:1058200003D10120EB4908755BE0EB480068406953
:105830000D90E9480068006A0C900D9905F07EF91A
:105840000E90209905F072F80F90E248806A0146A8
:105850000E900F9805F067F9DE49886241E03AE062
:1058600032E0DC491D9888621D98C8621E9804F0D9
:1058700031FECDE90A011D9804F02CFECDE90601A8
:10588000D5480068406A019004F024FE00224FF0E1
:105890008043CDE9020104F00DFBCDE90401DDE90F
:1058A000062304F007FBCDE90801DDE90A2303F034
:1058B000EDFFCDE90C0103F091FFCDE90E0103F0FE
:1058C000B3FFC44908620CE00220C24908750846CB
:1058D000C069086205E00020BE4988620846406A47
:1058E0000862BE48BE49097800EBC1001C90B94867
:1058F00001781C988170BB481B901B981990002060
:105900001A90B5480068806A1690B248C06801468F
:105910000F90169805F012F91590159804F0DAFD1D
:1059200000221346CDE90E0104F088FA01D20020CE
:10593000159000BFA748007D10B101287AD18BE0F7
:10594000A5480068406A0F90199904F0EFFF17907E
:10595000179804F0BFFD0022A34BCDE9000104F02D
:10596000A9FACDE904019B48C069019004F0B2FD99
:10597000CDE90201DDE9042303F088FFCDE9080148
:10598000199804F0A7FDCDE90601DDE9082304F02C
:1059900091FACDE90C01169804F09CFDCDE90A01BD
:1059A000DDE90C2304F0ACFCCDE90E0103F03CFF73
:1059B00016908848806A01460F90169804F082FF7E
:1059C00041D28448806A16908248006A08908148D3
:1059D000C0690790089904F0A9FD099004F07AFDC8
:1059E000CDE90C017C480068806A0690169905F0A4
:1059F000A5F8079004F06EFD00224FF08043CDE93A
:105A0000080104F057FACDE90A01DDE90C2303F09F
:105A1000F9FFCDE90E0103F007FF19906D48C06A48
:105A200001460F90169804F0B1FE04D10220694996
:105A3000087503E03DE00120664908756548006A85
:105A40006449C86107E06348C0690F90179904F082
:105A50006DFD6049C861ADE05E48006A0E9019991D
:105A600004F064FF0F90169905F05DF818905948FE
:105A7000C06A01460F90189804F024FF16D25548CA
:105A8000C06A01460E90169805F058F80F905148DC
:105A9000006A01460E900F9804F0B6FD19904D482B
:105AA000C06A169002204B49087501E018981690BC
:105AB00080E049480068406A0F90199904F036FF69
:105AC00017904448C0690F90179904F0FBFF43D228
:105AD000179804F0FFFC0022434BCDE9000104F0CD
